{
  "contractName": "UPCGoldBank",
  "abi": [
    {
      "constant": true,
      "inputs": [],
      "name": "actionPot",
      "outputs": [
        {
          "internalType": "uint256",
          "name": "",
          "type": "uint256"
        }
      ],
      "payable": false,
      "stateMutability": "view",
      "type": "function"
    },
    {
      "constant": true,
      "inputs": [
        {
          "internalType": "address",
          "name": "",
          "type": "address"
        }
      ],
      "name": "balanceReceived",
      "outputs": [
        {
          "internalType": "uint256",
          "name": "totalBalance",
          "type": "uint256"
        },
        {
          "internalType": "uint256",
          "name": "numPayments",
          "type": "uint256"
        }
      ],
      "payable": false,
      "stateMutability": "view",
      "type": "function"
    },
    {
      "constant": true,
      "inputs": [
        {
          "internalType": "bytes32",
          "name": "",
          "type": "bytes32"
        }
      ],
      "name": "leasedUnits",
      "outputs": [
        {
          "internalType": "address",
          "name": "staker",
          "type": "address"
        },
        {
          "internalType": "uint256",
          "name": "amountStaked",
          "type": "uint256"
        },
        {
          "internalType": "bool",
          "name": "isOwned",
          "type": "bool"
        },
        {
          "internalType": "uint256",
          "name": "interestGained",
          "type": "uint256"
        },
        {
          "internalType": "uint256",
          "name": "stakingStartTimestamp",
          "type": "uint256"
        }
      ],
      "payable": false,
      "stateMutability": "view",
      "type": "function"
    },
    {
      "constant": false,
      "inputs": [
        {
          "internalType": "address",
          "name": "_to",
          "type": "address"
        },
        {
          "internalType": "uint256",
          "name": "_amount",
          "type": "uint256"
        }
      ],
      "name": "internalTransfer",
      "outputs": [],
      "payable": false,
      "stateMutability": "nonpayable",
      "type": "function"
    },
    {
      "constant": true,
      "inputs": [],
      "name": "getBalance",
      "outputs": [
        {
          "internalType": "uint256",
          "name": "",
          "type": "uint256"
        }
      ],
      "payable": false,
      "stateMutability": "view",
      "type": "function"
    },
    {
      "constant": true,
      "inputs": [],
      "name": "getAddressBalance",
      "outputs": [
        {
          "internalType": "uint256",
          "name": "",
          "type": "uint256"
        }
      ],
      "payable": false,
      "stateMutability": "view",
      "type": "function"
    },
    {
      "constant": true,
      "inputs": [
        {
          "internalType": "string",
          "name": "upcId",
          "type": "string"
        }
      ],
      "name": "getCostToEvict",
      "outputs": [
        {
          "internalType": "address",
          "name": "currentStaker",
          "type": "address"
        },
        {
          "internalType": "uint256",
          "name": "currentAmountStaked",
          "type": "uint256"
        },
        {
          "internalType": "bool",
          "name": "currentIsOwned",
          "type": "bool"
        },
        {
          "internalType": "bytes32",
          "name": "upcHash",
          "type": "bytes32"
        }
      ],
      "payable": false,
      "stateMutability": "view",
      "type": "function"
    },
    {
      "constant": false,
      "inputs": [
        {
          "internalType": "string",
          "name": "upcId",
          "type": "string"
        }
      ],
      "name": "depositMoney",
      "outputs": [],
      "payable": true,
      "stateMutability": "payable",
      "type": "function"
    },
    {
      "constant": true,
      "inputs": [
        {
          "internalType": "uint256",
          "name": "amount",
          "type": "uint256"
        }
      ],
      "name": "calculateFee",
      "outputs": [
        {
          "internalType": "uint256",
          "name": "",
          "type": "uint256"
        }
      ],
      "payable": false,
      "stateMutability": "pure",
      "type": "function"
    },
    {
      "constant": false,
      "inputs": [
        {
          "internalType": "string",
          "name": "upcId",
          "type": "string"
        }
      ],
      "name": "withdraw",
      "outputs": [],
      "payable": false,
      "stateMutability": "nonpayable",
      "type": "function"
    }
  ],
  "bytecode": "0x608060405234801561001057600080fd5b5061151d806100206000396000f3fe6080604052600436106100915760003560e01c80633e7ba166116100595780633e7ba166146103905780634b42996a146103eb57806375eb2ad11461048657806399a5d747146104b1578063d18a42e11461050057610091565b806312065fe014610096578063154fd1b8146100c157806315c59fcc146101e25780632b8f7a491461020d57806331fb67c2146102c8575b600080fd5b3480156100a257600080fd5b506100ab61056c565b6040518082815260200191505060405180910390f35b3480156100cd57600080fd5b50610187600480360360208110156100e457600080fd5b810190808035906020019064010000000081111561010157600080fd5b82018360208201111561011357600080fd5b8035906020019184600183028401116401000000008311171561013557600080fd5b91908080601f016020809104026020016040519081016040528093929190818152602001838380828437600081840152601f19601f82011690508083019250505050505050919291929050505061058b565b604051808573ffffffffffffffffffffffffffffffffffffffff1673ffffffffffffffffffffffffffffffffffffffff1681526020018481526020018315151515815260200182815260200194505050505060405180910390f35b3480156101ee57600080fd5b506101f761071a565b6040518082815260200191505060405180910390f35b6102c66004803603602081101561022357600080fd5b810190808035906020019064010000000081111561024057600080fd5b82018360208201111561025257600080fd5b8035906020019184600183028401116401000000008311171561027457600080fd5b91908080601f016020809104026020016040519081016040528093929190818152602001838380828437600081840152601f19601f820116905080830192505050505050509192919290505050610720565b005b3480156102d457600080fd5b5061038e600480360360208110156102eb57600080fd5b810190808035906020019064010000000081111561030857600080fd5b82018360208201111561031a57600080fd5b8035906020019184600183028401116401000000008311171561033c57600080fd5b91908080601f016020809104026020016040519081016040528093929190818152602001838380828437600081840152601f19601f820116905080830192505050505050509192919290505050610d1f565b005b34801561039c57600080fd5b506103e9600480360360408110156103b357600080fd5b81019080803573ffffffffffffffffffffffffffffffffffffffff16906020019092919080359060200190929190505050611038565b005b3480156103f757600080fd5b506104246004803603602081101561040e57600080fd5b8101908080359060200190929190505050611174565b604051808673ffffffffffffffffffffffffffffffffffffffff1673ffffffffffffffffffffffffffffffffffffffff168152602001858152602001841515151581526020018381526020018281526020019550505050505060405180910390f35b34801561049257600080fd5b5061049b6111d7565b6040518082815260200191505060405180910390f35b3480156104bd57600080fd5b506104ea600480360360208110156104d457600080fd5b8101908080359060200190929190505050611220565b6040518082815260200191505060405180910390f35b34801561050c57600080fd5b5061054f6004803603602081101561052357600080fd5b81019080803573ffffffffffffffffffffffffffffffffffffffff1690602001909291905050506112ba565b604051808381526020018281526020019250505060405180910390f35b60003073ffffffffffffffffffffffffffffffffffffffff1631905090565b6000806000806002856040516020018082805190602001908083835b602083106105ca57805182526020820191506020810190506020830392506105a7565b6001836020036101000a0380198251168184511680821785525050505050509050019150506040516020818303038152906040526040518082805190602001908083835b60208310610631578051825260208201915060208101905060208303925061060e565b6001836020036101000a038019825116818451168082178552505050505050905001915050602060405180830381855afa158015610673573d6000803e3d6000fd5b5050506040513d602081101561068857600080fd5b810190808051906020019092919050505090506001600082815260200190815260200160002060000160009054906101000a900473ffffffffffffffffffffffffffffffffffffffff169350600160008281526020019081526020016000206001015492506001600082815260200190815260200160002060020160009054906101000a900460ff1691509193509193565b60025481565b60006002826040516020018082805190602001908083835b6020831061075b5780518252602082019150602081019050602083039250610738565b6001836020036101000a0380198251168184511680821785525050505050509050019150506040516020818303038152906040526040518082805190602001908083835b602083106107c2578051825260208201915060208101905060208303925061079f565b6001836020036101000a038019825116818451168082178552505050505050905001915050602060405180830381855afa158015610804573d6000803e3d6000fd5b5050506040513d602081101561081957600080fd5b8101908080519060200190929190505050905060003073ffffffffffffffffffffffffffffffffffffffff166399a5d747346040518263ffffffff1660e01b81526004018082815260200191505060206040518083038186803b15801561087f57600080fd5b505afa158015610893573d6000803e3d6000fd5b505050506040513d60208110156108a957600080fd5b810190808051906020019092919050505090506000813403905060006001600085815260200190815260200160002060020160009054906101000a900460ff1690506000151581151514610948576040517f08c379a000000000000000000000000000000000000000000000000000000000815260040180806020018281038252603281526020018061148f6032913960400191505060405180910390fd5b6000600160008681526020019081526020016000206001015490508083116109bb576040517f08c379a000000000000000000000000000000000000000000000000000000000815260040180806020018281038252603c815260200180611453603c913960400191505060405180910390fd5b6001600086815260200190815260200160002060000160009054906101000a900473ffffffffffffffffffffffffffffffffffffffff1673ffffffffffffffffffffffffffffffffffffffff163373ffffffffffffffffffffffffffffffffffffffff1614610a33576000610a2f866112de565b9050505b610a3b6113f1565b33816000019073ffffffffffffffffffffffffffffffffffffffff16908173ffffffffffffffffffffffffffffffffffffffff168152505083816020018181510191508181525050600081604001901515908115158152505042816080018181525050806001600088815260200190815260200160002060008201518160000160006101000a81548173ffffffffffffffffffffffffffffffffffffffff021916908373ffffffffffffffffffffffffffffffffffffffff1602179055506020820151816001015560408201518160020160006101000a81548160ff0219169083151502179055506060820151816003015560808201518160040155905050836000803373ffffffffffffffffffffffffffffffffffffffff1673ffffffffffffffffffffffffffffffffffffffff16815260200190815260200160002060000160008282540192505081905550610b91611438565b6040518060400160405280868152602001428152509050806000803373ffffffffffffffffffffffffffffffffffffffff1673ffffffffffffffffffffffffffffffffffffffff16815260200190815260200160002060020160008060003373ffffffffffffffffffffffffffffffffffffffff1673ffffffffffffffffffffffffffffffffffffffff16815260200190815260200160002060010154815260200190815260200160002060008201518160000155602082015181600101559050506000803373ffffffffffffffffffffffffffffffffffffffff1673ffffffffffffffffffffffffffffffffffffffff1681526020019081526020016000206001016000815480929190600101919050555060007322f23f59a19a5eed1ee9c546f64cc645b92a426390508073ffffffffffffffffffffffffffffffffffffffff166108fc889081150290604051600060405180830381858888f19350505050158015610d03573d6000803e3d6000fd5b5086600260008282540192505081905550505050505050505050565b60006002826040516020018082805190602001908083835b60208310610d5a5780518252602082019150602081019050602083039250610d37565b6001836020036101000a0380198251168184511680821785525050505050509050019150506040516020818303038152906040526040518082805190602001908083835b60208310610dc15780518252602082019150602081019050602083039250610d9e565b6001836020036101000a038019825116818451168082178552505050505050905001915050602060405180830381855afa158015610e03573d6000803e3d6000fd5b5050506040513d6020811015610e1857600080fd5b810190808051906020019092919050505090506001600082815260200190815260200160002060000160009054906101000a900473ffffffffffffffffffffffffffffffffffffffff1673ffffffffffffffffffffffffffffffffffffffff163373ffffffffffffffffffffffffffffffffffffffff1614610f02576040517f08c379a000000000000000000000000000000000000000000000000000000000815260040180806020018281038252601c8152602001807f4f6e6c7920746865207374616b65722063616e2077697468647261770000000081525060200191505060405180910390fd5b6000600160008381526020019081526020016000206001015490506000339050816000803373ffffffffffffffffffffffffffffffffffffffff1673ffffffffffffffffffffffffffffffffffffffff1681526020019081526020016000206000016000828254039250508190555081600160008581526020019081526020016000206001016000828254039250508190555060006001600085815260200190815260200160002060000160006101000a81548173ffffffffffffffffffffffffffffffffffffffff021916908373ffffffffffffffffffffffffffffffffffffffff1602179055508073ffffffffffffffffffffffffffffffffffffffff166108fc839081150290604051600060405180830381858888f19350505050158015611031573d6000803e3d6000fd5b5050505050565b806000803373ffffffffffffffffffffffffffffffffffffffff1673ffffffffffffffffffffffffffffffffffffffff1681526020019081526020016000206000015410156110d2576040517f08c379a00000000000000000000000000000000000000000000000000000000081526004018080602001828103825260288152602001806114c16028913960400191505060405180910390fd5b806000803373ffffffffffffffffffffffffffffffffffffffff1673ffffffffffffffffffffffffffffffffffffffff16815260200190815260200160002060000160008282540392505081905550806000808473ffffffffffffffffffffffffffffffffffffffff1673ffffffffffffffffffffffffffffffffffffffff168152602001908152602001600020600001600082825401925050819055505050565b60016020528060005260406000206000915090508060000160009054906101000a900473ffffffffffffffffffffffffffffffffffffffff16908060010154908060020160009054906101000a900460ff16908060030154908060040154905085565b60008060003373ffffffffffffffffffffffffffffffffffffffff1673ffffffffffffffffffffffffffffffffffffffff16815260200190815260200160002060000154905090565b60008161271080848161122f57fe5b0402146112a4576040517f08c379a00000000000000000000000000000000000000000000000000000000081526004018080602001828103825260098152602001807f746f6f20736d616c6c000000000000000000000000000000000000000000000081525060200191505060405180910390fd5b61271060b98302816112b257fe5b049050919050565b60006020528060005260406000206000915090508060000154908060010154905082565b6000806001600084815260200190815260200160002060010154905060006001600085815260200190815260200160002060000160009054906101000a900473ffffffffffffffffffffffffffffffffffffffff169050816000808373ffffffffffffffffffffffffffffffffffffffff1673ffffffffffffffffffffffffffffffffffffffff16815260200190815260200160002060000160008282540392505081905550600060016000868152602001908152602001600020600101819055508073ffffffffffffffffffffffffffffffffffffffff166108fc839081150290604051600060405180830381858888f193505050501580156113e6573d6000803e3d6000fd5b508192505050919050565b6040518060a00160405280600073ffffffffffffffffffffffffffffffffffffffff1681526020016000815260200160001515815260200160008152602001600081525090565b60405180604001604052806000815260200160008152509056fe596f75206d757374206f75747374616b65207468652063757272656e74207374616b65686f6c64657220746f2077696e2074686973206c656173652e43616e206e6f74207374616b6520696e20616e206f776e656420636f646520776974686f7574207065726d697373696f6e2e496e73756666696369656e742066756e647320666f7220696e7465726e616c207472616e73666572a265627a7a72315820a0d1a5552c86296174f1ea65e47414011001c58263786fcac778fc99a839131164736f6c63430005100032",
  "source": "pragma solidity ^0.5.16;\n\ncontract UPCGoldBank {\n     \n    \n    struct Deposit {\n        uint amount;\n        uint timestamps;\n    }\n    \n    struct Balance {\n        uint                        totalBalance;\n        uint                        numPayments;\n        mapping(uint => Deposit)    deposits;\n    }\n    \n    struct LeaseMeta {\n        address  staker;  //address of the staker\n        uint     amountStaked;\n        bool     isOwned;\n        uint     interestGained;\n        uint     stakingStartTimestamp;\n    }\n    \n    mapping(address => Balance)     public balanceReceived;\n    mapping(bytes32  => LeaseMeta)   public leasedUnits;       //pass in the upcId and look up the meta about the upc\n    uint public actionPot;\n\n    function internalTransfer(address _to, uint _amount) public {\n        require(balanceReceived[msg.sender].totalBalance >= _amount, \"Insufficient funds for internal transfer\" );\n        balanceReceived[msg.sender].totalBalance -= _amount;\n        balanceReceived[_to].totalBalance += _amount; \n    }\n\n    function getBalance() public view returns(uint) {\n        return address(this).balance;\n    }\n\n    function getAddressBalance() public view returns(uint) {\n        return balanceReceived[msg.sender].totalBalance;\n    }\n\n    function getCostToEvict(string memory upcId) public view returns(address currentStaker, uint currentAmountStaked, bool currentIsOwned, bytes32 upcHash) {\n        upcHash = sha256(abi.encodePacked(upcId));\n        currentStaker = leasedUnits[upcHash].staker;\n        currentAmountStaked = leasedUnits[upcHash].amountStaked;\n        currentIsOwned = leasedUnits[upcHash].isOwned;\n    }\n\n    function depositMoney(string memory upcId) public payable {\n        bytes32 upcHash = sha256(abi.encodePacked(upcId));\n        uint _addToActionPot = this.calculateFee(msg.value);\n        uint _addToBalance = msg.value - _addToActionPot; //take eth out to do good with\n\n        //look into registering an unstoppable domain id.  verify on the blockchain that the msg.sender == the owner of the domain\n        //(, uint currentAmountStaked ,) = this.getCostToEvict(upcId);\n        bool currentIsOwned      = leasedUnits[upcHash].isOwned;\n        require(currentIsOwned == false, \"Can not stake in an owned code without permission.\");\n\n        uint currentAmountStaked = leasedUnits[upcHash].amountStaked;\n        require(_addToBalance > currentAmountStaked, \"You must outstake the current stakeholder to win this lease.\");\n        \n        if(msg.sender != leasedUnits[upcHash].staker) {\n            uint evictionPrice = evict(upcHash);\n        }\n        \n        LeaseMeta memory lm;\n        lm.staker = msg.sender;\n        lm.amountStaked += _addToBalance;\n        lm.isOwned =  false;\n        lm.stakingStartTimestamp = now;\n        leasedUnits[upcHash] = lm;\n        \n        //require(balanceReceived[msg.sender].totalBalance >= _amount, \"Insufficient funds for internal transfer\" );\n\n        balanceReceived[msg.sender].totalBalance += _addToBalance;\n        Deposit memory deposit = Deposit(_addToBalance, now);\n        balanceReceived[msg.sender].deposits[balanceReceived[msg.sender].numPayments] = deposit;\n        balanceReceived[msg.sender].numPayments++;\n        \n        address payable _actionPot = address(0x22F23F59A19a5EEd1eE9c546F64CC645B92a4263);\n        _actionPot.transfer(_addToActionPot);\n        actionPot += _addToActionPot;\n        \n    }\n    \n    function calculateFee(uint amount) external pure returns (uint) {\n        require((amount / 10000) * 10000 == amount , 'too small');\n        return amount * 185 / 10000;\n    }\n\n    function evict(bytes32 upcHash) private returns (uint) {\n        \n        uint toWithdraw = leasedUnits[upcHash].amountStaked;\n        address payable _to = address(uint160(leasedUnits[upcHash].staker));\n        balanceReceived[_to].totalBalance -= toWithdraw;\n        leasedUnits[upcHash].amountStaked = 0;\n        _to.transfer(toWithdraw);\n        return toWithdraw;\n    }\n    \n    function withdraw(string memory upcId) public {\n        \n        bytes32 upcHash = sha256(abi.encodePacked(upcId));\n        require(msg.sender == leasedUnits[upcHash].staker, \"Only the staker can withdraw\" );\n        uint toWithdraw = leasedUnits[upcHash].amountStaked;\n        address payable _to = msg.sender;\n        balanceReceived[msg.sender].totalBalance -= toWithdraw;\n        leasedUnits[upcHash].amountStaked -= toWithdraw;\n        leasedUnits[upcHash].staker = address(0x0);\n        _to.transfer(toWithdraw);\n    }\n    \n}\n",
  "sourcePath": "/home/tenten/Projects/Mountain/upcgold.io/src/contracts/UPCGoldBank.sol",
  "compiler": {
    "name": "solc",
    "version": "0.5.16+commit.9c3226ce.Emscripten.clang"
  },
  "schemaVersion": "3.2.3",
  "updatedAt": "2020-09-29T09:38:25.236Z",
  "networkType": "ethereum",
  "devdoc": {
    "methods": {}
  },
  "userdoc": {
    "methods": {}
  }
}